:100000000C9409040C9431040C9431040C943104C4
:100010000C9431040C9431040C9431040C9431048C
:100020000C9431040C9431040C94B2150C942116E8
:100030000C9431040C9431040C9431040C9431046C
:100040000C9431040C9431040C9431040C9431045C
:100050000C9431040C9431040C9431040C94681504
:100060000C9431040C9431040C9431040C9431043C
:100070000C9431040C9431040C9431040C9431042C
:100080000C9431040C9431040C9431040C9431041C
:100090000C9431040C9431040C9431040C9431040C
:1000A0000C9431040C9431040C94310400407A1007
:1000B000F35A00A0724E18090010A5D4E80000E819
:1000C0007648170000E40B54020000CA9A3B000077
:1000D00000E1F505000080969800000040420F0006
:1000E0000000A08601000000102700000000E803C7
:1000F000000000006400000000000A000000000092
:100100000100000000002C76D888DC674F0823DF50
:10011000C1DFAE59E1B1B796E5E3E453C63AE65123
:10012000997696E8E6C28426EB898C9B62ED407C4A
:100130006FFCEFBC9C9F40F2BAA56FA5F490055AE6
:100140002AF75C936B6CF9676DC11BFCE0E40D470B
:10015000FEF520E6B500D0ED902E0300943577052E
:100160000080841E080000204E0A000000C80C33E6
:100170003333330F986E12831141EF8D2114893B75
:10018000E65516CFFEE6DB18D1844B381BF77C1DF5
:10019000901DA4BBE424203284725E228100C9F148
:1001A00024ECA1E53D2700000000003E5B4F5B3ED4
:1001B0003E6B4F6B3E1C3E7C3E1C183C7E3C181C2C
:1001C000577D571C1C5E7F5E1C00183C1800FFE723
:1001D000C3E7FF0018241800FFE7DBE7FF30483AC9
:1001E000060E2629792926407F050507407F05252B
:1001F0003F5A3CE73C5A7F3E1C1C08081C1C3E7FB3
:1002000014227F22145F5F005F5F06097F017F0079
:100210006689956A606060606094A2FFA294080499
:100220007E040810207E201008082A1C08081C2ABA
:1002300008081E101010100C1E0C1E0C30383E3812
:1002400030060E3E0E06000000000000005F0000B9
:100250000007000700147F147F14242A7F2A12232A
:100260001308646236495620500008070300001C3A
:100270002241000041221C002A1C7F1C2A08083E43
:100280000808008070300008080808080000606056
:100290000020100804023E5149453E00427F4000C4
:1002A00072494949462141494D331814127F10279C
:1002B000454545393C4A49493141211109073649EB
:1002C000494936464949291E0000140000004034BF
:1002D00000000008142241141414141400412214C4
:1002E0000802015909063E415D594E7C1211127CEB
:1002F0007F494949363E414141227F4141413E7F4C
:10030000494949417F090909013E414151737F082B
:1003100008087F00417F41002040413F017F0814D1
:1003200022417F404040407F021C027F7F04081032
:100330007F3E4141413E7F090909063E4151215E10
:100340007F09192946264949493203017F01033FA4
:100350004040403F1F2040201F3F4038403F631433
:1003600008146303047804036159494D43007F4135
:1003700041410204081020004141417F0402010272
:100380000440404040400003070800205454784097
:100390007F284444383844444428384444287F382B
:1003A0005454541800087E090218A4A49C787F08AD
:1003B00004047800447D40002040403D007F102828
:1003C000440000417F40007C047804787C080404E9
:1003D000783844444438FC1824241818242418FC81
:1003E0007C08040408485454542404043F44243C26
:1003F0004040207C1C2040201C3C4030403C442895
:100400001028444C9090907C4464544C440008362E
:10041000410000007700000041360800020102049C
:10042000023C2623263C1EA1A161123A4040207ABC
:100430003854545559215555794121545478412106
:100440005554784020545579400C1E52721239553B
:100450005555593954545459395554545800004538
:100460007C410002457D420001457C40F029242961
:10047000F0F0282528F07C545545002054547C5435
:100480007C0A097F49324949493232484848323268
:100490004A4848303A4141217A3A42402078009D0A
:1004A000A0A07D39444444393D4040403D3C24FFB8
:1004B0002424487E4943662B2FFC2F2BFF0929F665
:1004C00020C0887E090320545479410000447D41B6
:1004D0003048484A32384040227A007A0A0A727D0F
:1004E0000D19317D2629292F28262929292630482A
:1004F0004D4020380808080808080808382F10C898
:10050000ACBA2F102834FA00007B000008142A141B
:100510002222142A1408AA005500AAAA55AA55AAEC
:10052000000000FF00101010FF00141414FF001052
:1005300010FF00FF1010F010F0141414FC0014143D
:10054000F700FF0000FF00FF1414F404FC1414175C
:10055000101F10101F101F1414141F00101010F083
:10056000000000001F101010101F10101010F010CD
:10057000000000FF101010101010101010FF1000DD
:100580000000FF140000FF00FF00001F1017000014
:10059000FC04F414141710171414F404F40000FFEE
:1005A00000F714141414141414F700F71414141787
:1005B0001410101F101F141414F4141010F010F065
:1005C00000001F101F0000001F14000000FC14009A
:1005D00000F010F01010FF10FF141414FF1410108E
:1005E000101F00000000F010FFFFFFFFFFF0F0F011
:1005F000F0F0FFFFFF0000000000FFFF0F0F0F0FE4
:100600000F38444438447C2A2A3E147E02020606EF
:10061000027E027E0263554941633844443C0440F3
:100620007E201E2006027E020299A5E7A5991C2ABB
:10063000492A1C4C7201724C304A4D4D303048787A
:100640004830BC625A463D3E494949007E0101019D
:100650007E2A2A2A2A2A44445F444440514A44407C
:1006600040444A51400000FF0103E080FF000008C1
:10067000086B6B083612362436060F090F06000089
:1006800018180000001010003040FF0101001F0189
:10069000011E00191D1712003C3C3C3C00000000EC
:1006A00000080B000202020000090400000102021F
:1006B00000000524001001052401010104240206A4
:1006C000052406000107058103100040090401000C
:1006D000020A00000007050202400000070583022D
:1006E0004000000403090412010002EF020140412E
:1006F00023368000010102030141726475696E6F47
:10070000204C4C430041726475696E6F204C656FDC
:100710006E6172646F0016018005EF03038002CFE3
:100720000300C130ED0464031281E803850078CB37
:1007300005392C003402F70120EA020000C0012331
:10074000C10110C5023E28C701863601483A01554D
:10075000B1020018B603088227F20100260101E069
:100760000F0F312B0C0E084EF1370710030E090046
:10077000E10F000E1403110731C148080F0C313688
:100780000F118078290000000000240027002A00B3
:100790002D00300000000000250028002B002E0056
:1007A0003100000000002300260029002C002F004B
:1007B0000404040404030405020202020403020206
:1007C00002020606060606060404020202040404E7
:1007D0000802011040804010204080408008020440
:1007E00001804020100201108010204040200000B5
:1007F000000200090F0000030401000C00000000CB
:10080000000000000000000000000000000053187D
:10081000D22311241FBECFEFDAE0DEBFCDBF23E02D
:10082000AAECB1E001C01D92A030B207E1F711E0DF
:10083000A0E0B1E0E0E3F6E502C005900D92AA3C2D
:10084000B107D9F714E0C8E0D4E004C02197FE0155
:100850000E94F927C730D107C9F70E949D190C944F
:100860000B2B0C940000CF92DF92EF92FF9222E0CC
:1008700030E097FD02C021E030E0EAE0F0E0AC01BA
:1008800097FF04C044275527481B590B4A30510590
:100890003CF02F5F3F4FBF010E94A427CB01EFCF59
:1008A000B901330F880B990B0E943C2620E030E001
:1008B00040EB50E40E949B266B017C0120E030E07D
:1008C000A9010E94142920E030E040E05FE387FDA9
:1008D0000CC0C701B6010E9400280E94DE28CB018F
:1008E000FF90EF90DF90CF900895C701B6010E946E
:1008F000FF27F3CF9CB52091C8022CBD8EBD000010
:100900000DB407FEFDCF9CBD0895599A58980E94DA
:100910007A04589A08959DB59093C90259985898A9
:100920000E947A04589A0895FC018091FD01882361
:1009300011F13FB7F89482E08093E9002091F20032
:10094000822F90E01816190614F481E090E08823B5
:1009500039F0289844E64093FC014091F10040832F
:10096000222339F02091F200211103C02BE62093BD
:10097000E8003FBF08958FEF9FEF08952FB7F894D9
:1009800083E08093E9009091E800892F807295FFC1
:1009900004C09091F20080E4891B2FBF08958091DC
:1009A000F40181110DC082E08093F00184E0809316
:1009B000F1011092F3011092F20181E08093F401B1
:1009C00080EF91E0089581508F3008F047C0E82F04
:1009D000F0E0E351FB4F0C94F9270A050E05FC04E7
:1009E000020506052E052E052E05110517051B050A
:1009F0001F0525052E052905809180008F7780939E
:100A000080000895809180008F7DF9CF80918000D3
:100A1000877FF5CF84B58F7784BD089584B58F7DAA
:100A2000FBCF809190008F77809390000895809104
:100A300090008F7DF9CF80919000877FF5CF8091D6
:100A4000C0008F778093C00008958091C0008F7D93
:100A5000F9CF8091C200877F8093C2000895CF9321
:100A6000DF93282F30E0F901E251F84F8491F9012A
:100A7000E153F84FD491F901E055F84FC491CC23DC
:100A8000A1F081110E94E304EC2FF0E0EE0FFF1FB4
:100A9000EE55F84FA591B491EC91ED2381E090E0F3
:100AA00009F480E0DF91CF91089580E090E0FACFE3
:100AB0001F93CF93DF93282F30E0F901E251F84FD5
:100AC0008491F901E153F84FD491F901E055F84FC1
:100AD000C491CC23A9F0162F81110E94E304EC2FBE
:100AE000F0E0EE0FFF1FEC56F84FA591B4918FB7D1
:100AF000F894EC91111108C0D095DE23DC938FBFE0
:100B0000DF91CF911F910895DE2BF8CFCF93DF9324
:100B100090E0FC01E153F84F24918055984FFC017F
:100B200084918823C9F090E0880F991FFC01EA574F
:100B3000F84FA591B491FC01EC56F84FC591D491B2
:100B400061110DC09FB7F8948C91209582238C93EE
:100B50008881282328839FBFDF91CF910895623039
:100B600051F49FB7F8943C91822F809583238C9306
:100B7000E8812E2BEFCF8FB7F894EC912E2B2C938E
:100B80008FBFEACF3FB7F8948091EC019091ED01CF
:100B9000A091EE01B091EF0126B5A89B05C02F3FB3
:100BA00019F00196A11DB11D3FBFBA2FA92F982F93
:100BB0008827BC01CD01620F711D811D911D42E08E
:100BC000660F771F881F991F4A95D1F708958F9256
:100BD0009F92AF92BF92CF92DF92EF92FF926B0102
:100BE0007C010E94C2054B015C01C114D104E104E7
:100BF000F104B9F00E94C205681979098A099B09B4
:100C0000683E73408105910580F321E0C21AD10846
:100C1000E108F10888EE880E83E0981EA11CB11C43
:100C2000E4CFFF90EF90DF90CF90BF90AF909F9078
:100C30008F9008954091CC015091CD012091CA012F
:100C40003091CB0142175307B4F49091E8009570AE
:100C5000E1F39091E80092FD19C08093F10080913A
:100C6000CC019091CD0101968F739927892B19F4AE
:100C70008EEF8093E8008091CC019091CD01019698
:100C80009093CD018093CC0181E0089580E0089598
:100C9000EF92FF920F931F93CF93DF93F82E192FAC
:100CA000E62E042F81E0860F880F0E941A0683E04B
:100CB0000E941A06CF2DD12FEC0EFD2EF11CCE1561
:100CC000DF05B9F007FF13C0FE0184910E941A06E8
:100CD000182F80E00E941A06812321968111EFCF00
:100CE000DF91CF911F910F91FF90EF900895888130
:100CF000EDCF81E0F5CFDF92EF92FF920F931F933C
:100D0000CF93DF93D82E8A01EB017B01E40EF51E11
:100D1000CE15DF0559F0D7FE12C0FE0184910E9466
:100D20001A0621968111F4CF0FEF1FEFC801DF9152
:100D3000CF911F910F91FF90EF90DF9008958881E0
:100D4000EECF0F931F93CF93DF931F92CDB7DEB7F4
:100D500082E0898342E450E061EA76E080E80E9424
:100D60007B060E94CF04DC0112960D911C910115A7
:100D7000110589F0D801ED91FC910280F381E02DFD
:100D8000BE016F5F7F4FC801099597FD04C0F80150
:100D900000851185ECCF89810F90DF91CF911F9154
:100DA0000F910895615030F02091F100FC012083F3
:100DB0000196F8CF289884E68093FC010895AF92BD
:100DC000BF92CF92DF92EF92FF920F931F93CF9338
:100DD000DF936C017B018B01040F151FEB015E019A
:100DE000AE18BF08C017D10759F06991D601ED912F
:100DF000FC910190F081E02DC6010995892B79F7CE
:100E0000C501DF91CF911F910F91FF90EF90DF907F
:100E1000CF90BF90AF9008958F929F92AF92BF9264
:100E2000CF92DF92EF92FF920F931F93CF93DF93B6
:100E30006C017B018A0180910B01882309F45CC05D
:100E40008091FD01882309F457C08091D00180FF73
:100E500005C08091E00082608093E000E801B12C41
:100E60008AEFA82E93E0892E2AE3922E209711F480
:100E7000BB20D9F10E94BE0481110AC0AA94AA2005
:100E8000D9F161E070E080E090E00E94E705EECFEC
:100E90008C171D0611F00CF08C2F9FB7F8948092E0
:100EA000E9002091E80025FD02C09FBFDFCF282F79
:100EB00030E0C21BD30BF701815020F041914093E9
:100EC000F100FACFE20EF31EBB2021F09092E80071
:100ED000B12CEBCF8091E80085FDE7CF9092E80040
:100EE000BB24B394209709F3F3CF5D9884E68093F5
:100EF000CF01101611063CF081E090E0F6019383DB
:100F0000828310E000E0C801DF91CF911F910F9123
:100F1000FF90EF90DF90CF90BF90AF909F908F9019
:100F20000895CF93DF931F92CDB7DEB76983DC01BD
:100F3000ED91FC910280F381E02D41E050E0BE0193
:100F40006F5F7F4F09950F90DF91CF91089583E0F8
:100F50008093E9008091F200882319F08AE380935E
:100F6000E80008950E94BE0490E00895CF93DF93B7
:100F70001F92CDB7DEB7FC018485958597FD08C02B
:100F80002FEF3FEF358724870F90DF91CF910895A2
:100F9000CE0101960E949404019719F4898190E092
:100FA000F3CF8FEF9FEFF0CF0F931F93CF93DF938C
:100FB0001F92CDB7DEB78C01FC018485958597FF24
:100FC0000BC0CE0101960E949404019771F48981AF
:100FD00090E0F80195878487F801848595850F90C6
:100FE000DF91CF911F910F9108958FEF9FEFF1CF78
:100FF000FC018485958597FD0BC09FB7F89482E02E
:101000008093E9008091F2009FBF90E001960895DF
:101010009FB7F89482E08093E9008091F2009FBF2F
:1010200090E0089508950F931F93FC0159985898E4
:101030008AE28EBD00960096009601D001C0089508
:10104000599A7EBD0000009601D001C008958FEF2F
:101050009FEF978F868F6EBD0000009601D001C074
:101060000895848595858217930781F03EBD000021
:10107000009601D001C008950000358724872EBD59
:1010800000000096009601D001C0089559988BE2A7
:101090008EBD00960096009601D001C00895599A21
:1010A0005EBD0000009601D001C008958FEF9FEF54
:1010B000958F848F4EBD0000009601D001C0089529
:1010C000868597858017910781F01EBD00000096E8
:1010D00001D001C008950000178706870EBD0000EB
:1010E0000096009601D001C0089559988CE28EBDFB
:1010F00000000096009601D001C00895599A1F91F2
:101100000F910895EF92FF920F931F93CF93DF9368
:10111000EA01F22EE32E9C01240F351F21503109E4
:101120008B01AB01BC0182EC92E00E941308209776
:1011300071F0EEBC02D001D001C008950000FEBCE9
:101140000096009601D001C00895219791F7589A12
:10115000DF91CF911F910F91FF90EF900895CF9263
:10116000DF92EF92FF920F931F93CF93DF9320E0D4
:1011700030E0A90160917002709171028091720259
:10118000909173020E94142987FD5EC0C0906C028A
:10119000D0906D02E0906E02F0906F0220E030E09F
:1011A000A901C701B6010E94352618160CF44CC0DF
:1011B00000915E0210915F02C0918802D091890275
:1011C00020919002309191024091920250919302AD
:1011D000C701B6010E949B266B017C0160918602CB
:1011E0007091870290E080E00E943A269B01AC015A
:1011F000C701B6010E9400286B017C0120E030E0AD
:10120000A9010E94142920E030E040E05FE387FD5F
:1012100016C0C701B6010E9400280E94DE2898016E
:10122000AE018091800290918102DF91CF911F9158
:101230000F91FF90EF90DF90CF900C948208C70140
:10124000B6010E94FF27E9CFDF91CF911F910F9147
:10125000FF90EF90DF90CF9008954F925F926F9242
:101260007F928F929F92AF92BF92CF92DF92EF9236
:10127000FF920F931F93CF93DF9300918002109101
:101280008102C0907002D0907102E0907202F090E2
:101290007302A701960160916C0270916D028091BA
:1012A0006E0290916F020E94352618160CF451C000
:1012B00040907002509071026090720270907302C0
:1012C000C0915802D0915902A3019201C701B60101
:1012D0000E94FF272091900230919102409192024A
:1012E000509193020E949B264B015C016091860203
:1012F0007091870290E080E00E943A269B01AC0149
:10130000C501B4010E9400280E94DE284B01A30100
:101310009201C701B6010E94352640918802509182
:1013200089029E01882311F04AE050E0B401C8010F
:101330000E948208209178023091790240917A02CD
:1013400050917B02C701B6010E94FF276B017C010F
:10135000A0CFDF91CF911F910F91FF90EF90DF9081
:10136000CF90BF90AF909F908F907F906F905F9045
:101370004F900895EF92FF920F931F93CF93DF93B7
:10138000EA01F22EE32E8B01040F151F0150110903
:101390009C01AB01BC0182EC92E00E9413082097F3
:1013A00071F0EEBC02D001D001C008950000FEBC77
:1013B0000096009601D001C00895219791F7589AA0
:1013C000DF91CF911F910F91FF90EF9008954F9271
:1013D0005F926F927F928F929F92AF92BF92CF92C5
:1013E000DF92EF92FF920F931F93CF93DF930091C1
:1013F0008602109187020A501109C0906402D090B1
:101400006502E0906602F0906702A7019601609184
:1014100068027091690280916A0290916B020E9449
:10142000142987FD55C04090640250906502609079
:10143000660270906702C0915802D0915902A301D0
:101440009201C701B6010E94FF2720918C023091C2
:101450008D0240918E0250918F020E949B264B017B
:101460005C01609180027091810290E080E00E94B6
:101470003A269B01AC01C501B4010E9400280E94DC
:10148000DE284B01A3019201C701B6010E94352657
:101490009E014AE050E0B801811108C040918A02E3
:1014A00050918B026091820270918302C4010E946C
:1014B000BA092091740230917502409176025091E0
:1014C0007702C701B6010E9400286B017C019DCF05
:1014D000DF91CF911F910F91FF90EF90DF90CF9010
:1014E000BF90AF909F908F907F906F905F904F9044
:1014F00008952F923F924F925F926F927F928F92B8
:101500009F92AF92BF92CF92DF92EF92FF920F9392
:101510001F93CF93DF9300D000D000D0CDB7DEB7BC
:101520005B015E834D8379010B831C83A901461BFC
:10153000570B57FF03C05195419551092D813E81AD
:10154000281B390B37FF03C03195219531092090B5
:10155000D4023090D5028090D6029090D702241702
:10156000350784F07E2D6F2DED80FE807D836E83A8
:101570007A2D6B2D5C01872F962F782D692D4101D7
:10158000272E362EEA14FB045CF07D816E819E834B
:101590008D83872F962F7E2D6F2D7501A72EB62E4A
:1015A000B7FC85C025014E185F083C016D817E8126
:1015B000661A770A77FE03C071946194710862011C
:1015C00057FE03C07FEFC71AD70AD594C7946D8121
:1015D0007E81681779075CF571E07983A814B904F6
:1015E00024F0540191E0A91AB1086981862F660F91
:1015F000990BAE14BF040CF45AC0F7FC08C06D81FF
:101600007E8177FD04C0621573050CF469C0C618AD
:10161000D708D7FE08C0C40CD51C6D817E81680F29
:10162000791F7E836D837FEFE71AF70AE2CF8FEF92
:101630008983D4CF84012D813E81A701B90182EC39
:1016400092E00E9413088981082E000C990B9A835E
:1016500089839B812C812EBD02D001D001C00895C9
:1016600000009EBD0000C618D708D7FE19C06D81C6
:101670007E8189819A81680F791F7E836D8377FDD2
:1016800015C06215730594F4C40CD51C00008401C8
:101690009B01A7014F5F5F4F82EC92E00E9413080D
:1016A0009FEFE91AF90AAE14BF049CF6589A2696E1
:1016B0000FB6F894DEBF0FBECDBFDF91CF911F9163
:1016C0000F91FF90EF90DF90CF90BF90AF909F90E1
:1016D0008F907F906F905F904F903F902F900895E4
:1016E000241735070CF4A6CF0D811E819401A801A3
:1016F000B70182EC92E00E9413082981022E000CAF
:10170000330B3A8329833B816C816EBD02D001D0BB
:1017100001C0089500003EBD0000C618D708D7FEDE
:101720001BC08D819E8129813A81820F931F9E83E8
:101730008D8397FDBBCF821593050CF0B7CFC40CFA
:10174000D51C00008C019401AC01B7016F5F7F4F85
:1017500082EC92E00E9413083FEFE31AF30AAE1402
:10176000BF048CF6A3CF2F923F924F925F926F925D
:101770007F928F929F92AF92BF92CF92DF92EF9221
:10178000FF920F931F93CF93DF93CDB7DEB76A9786
:101790000FB6F894DEBF0FBECDBF69837A838B830B
:1017A0009C8329013A01EB8AFC8A0D8B1E8BAF8A40
:1017B000B88EC98EDA8E8091640290916502A091F4
:1017C0006602B09167028D839E83AF83B887809154
:1017D0008C0290918D02A0918E02B0918F02898728
:1017E0009A87AB87BC87609180027091810290E0FC
:1017F00080E00E943A266D877E878F87988B2D81A7
:101800003E814F81588569817A818B819C810E94BC
:10181000FF2729853A854B855C850E949B262D856F
:101820003E854F8558890E9400286B017C0120E08D
:1018300030E0A9010E94142920E030E040E05FE39D
:1018400087FDBFC0C701B6010E9400280E94DE28A4
:101850007A8B698B80906C0290906D02A0906E02E2
:10186000B0906F028091900290919102A0919202AB
:10187000B091930289839A83AB83BC836091860283
:101880007091870290E080E00E943A266B017C0113
:10189000A3019201C501B4010E94FF2729813A8169
:1018A0004B815C810E949B26A70196010E94002823
:1018B0002B013C0120E030E0A9010E94142920E026
:1018C00030E040E05FE387FD81C0C301B2010E94C8
:1018D00000280E94DE281B012D813E814F81588502
:1018E0006B897C898D899E890E94FF2729853A858D
:1018F0004B855C850E949B262D853E854F855889AA
:101900000E9400282B013C0120E030E0A9010E9448
:10191000142920E030E040E05FE387FD5CC0C301B4
:10192000B2010E9400280E94DE287E836D832F89E9
:10193000388D498D5A8DC501B4010E94FF27298138
:101940003A814B815C810E949B26A70196010E94EF
:1019500000286B017C0120E030E0A9010E941429DD
:1019600020E030E040E05FE387FD3AC0C701B60108
:101970000E9400280E94DE2800915002109151021E
:101980009B014D815E81B10189899A890E94790A02
:101990006A960FB6F894DEBF0FBECDBFDF91CF9130
:1019A0001F910F91FF90EF90DF90CF90BF90AF907D
:1019B0009F908F907F906F905F904F903F902F906F
:1019C0000895C701B6010E94FF2740CFC301B201AD
:1019D0000E94FF277ECFC301B2010E94FF27A3CF41
:1019E000C701B6010E94FF27C5CFCF92DF92EF92C9
:1019F000FF920F931F93CF93DF936901E8018A0150
:101A00000C0F1D1F015011099B012C0D3D1D215074
:101A100031090E941308219790F0C601009771F0D8
:101A2000FEBC02D001D001C008950000EEBC0096BB
:101A3000009601D001C00895019791F7ECCF589A14
:101A4000DF91CF911F910F91FF90EF90DF90CF909A
:101A500008952F923F924F925F926F927F928F9252
:101A60009F92AF92BF92CF92DF92EF92FF920F932D
:101A70001F93CF93DF93CDB7DEB765970FB6F8947A
:101A8000DEBF0FBECDBFFC016D3001F140A188E08B
:101A900090E006E010E0413021F090E080E010E0BE
:101AA00000E021A12B87A22EB12CA89ED001A99ED7
:101AB000B00DB89EB00D1124828593856A3009F56A
:101AC0008A0F9B1F938782871186108681E090E0A2
:101AD00065960FB6F894DEBF0FBECDBFDF91CF91F4
:101AE0001F910F91FF90EF90DF90CF90BF90AF903C
:101AF0009F908F907F906F905F904F903F902F902E
:101B0000089524A12223B1F0A09E9001A19E300D42
:101B1000B09E300D112400851185200F311F0289E0
:101B200013892017310730F08A0F9B1F9387828714
:101B3000118610866F0190E080E0413009F092C07C
:101B40004084518482899389481659060CF083C0D9
:101B50002284338484899589281639060CF07BC049
:101B6000C201AB8536E0A39F800D911D112418168C
:101B700019060CF070C0C50123E0880F991F2A9543
:101B8000E1F7820D931D181619060CF064C0008C45
:101B9000F18DE02DFA87E987D60156960D90BC911C
:101BA000A02DB887AF83B5E06B9F40011124EB8572
:101BB000E13009F06AC029853A858F819885281718
:101BC000390709F462C08101085F1F4F92012B5F42
:101BD0003F4FA101B201C6010E941308DE01119618
:101BE00090E080E0B4016A557E4FFB01E80FF91FD9
:101BF000E491ED93019685309105B9F71E823A85FF
:101C0000488588E091E061E070E06C0F7D1F6B5FBC
:101C10007F4FFE0131962191292361F10DB407FE1A
:101C2000FDCF4EBD00000DB407FEFDCFAF81AEBDB0
:101C30006E177F0781F7990F0DB407FEFDCF3EBDEC
:101C40000DB407FEFDCFE985EEBD815011F70DB44F
:101C500007FEFDCF589AD60191968C91B6E08B9FE6
:101C6000C0011124F60120853185820F931F9187D1
:101C700080872CCF0DB407FEFDCF3EBD00000DB414
:101C800007FEFDCFB985BEBDD3CFF885F98B5D8644
:101C90004C86712C612C94012A553E4F3B8B2A8B2C
:101CA0009B85892F90E09D8B8C8BA5E0E0E06A16E8
:101CB00029F0EA89FB89E60DF71DE491BB85B13077
:101CC00009F0B3C0A201460D571D152F30E020E0EA
:101CD000962C940C6E2F70E0E0FF8FC0F601828985
:101CE00093894817590708F088C0C101820F931FD4
:101CF000A489B5898A179B0708F07FC05898A68DDC
:101D0000B78DA417B50709F426C05998FAE2FEBDAD
:101D10000000009601D001C00895D6015F965C9343
:101D20004E935E97599A1EBD02D001D001C008950E
:101D300000009EBC02D001D001C0089500001EBD6D
:101D400002D001D001C0089500009EBC00000096A2
:101D500001D001C00895F601A48DB58DA817B9076B
:101D600009F429C05998FBE2FEBD0000009601D09D
:101D700001C00895D6015D969C938E935C97599A05
:101D80009EBD02D001D001C008950000E22FE20DF7
:101D9000EEBD02D001D001C0089500009EBD02D06A
:101DA00001D001C008950000EEBD0000009600962D
:101DB00001D001C008955998BCE2BEBD00960096BE
:101DC000009601D001C00895599AE989EEBD0096A8
:101DD0000096009601D001C00895D6011D965C932F
:101DE0004E931C97BF81BEBD0000009601D001C07C
:101DF0000895F60197878687589A75956795E62F17
:101E00002F5F3F4F2830310509F064CF3FEF631A51
:101E1000730A8C859D858A0D9B1D9D878C8796E016
:101E20006916710409F041CF16CF4101F8E0FE8731
:101E30002E2F30E0388B2F87EF80F884E0FD08C02C
:101E400089859A85AF81B8858A179B0749F07C01FF
:101E500085019501A4016C857D85C6010E94F50C64
:101E6000EF85F889F595E795BE85B150BE872C8939
:101E70003D89820E931EB111DBCFC8CF089590E04B
:101E800080E00895FF920F931F93CF93DF93F82E76
:101E9000062FC7E0D0E010E061E0802F0E945805D7
:101EA0008F2D0E942F050C2E01C0880F0A94EAF78F
:101EB000182B60E0802F0E945805219768F7812F2A
:101EC000DF91CF911F910F91FF900895EF92FF92B4
:101ED0000F931F93CF93DF93809197020E942F055A
:101EE000892B31F060E070E0CB010E94E705F4CF70
:101EF000DFB7F89460919602809197020E94420F9A
:101F0000082F60919602809197020E94420FC82F7D
:101F100060919602809197020E94420F182FF12C37
:101F2000E12C809198028E151F0479F070F061E029
:101F3000809196020E94580560E0809196020E946E
:101F400058058FEFE81AF80AECCFDFBF6C2F70E06E
:101F500090E080E0982F872F762F6627802B612BCB
:101F6000000F000B10E030E020E0302F2227112777
:101F70000027602B712B822B932BDF91CF911F9128
:101F80000F91FF90EF900895CF92DF92EF92FF9222
:101F9000CF93DF93C82FC12CD12C7601D0E00E94C3
:101FA000660FC60ED71EE81EF91E60E070E0CB017A
:101FB0000E94E705DF5FCD13F2CF2C2F30E050E019
:101FC00040E0C701B6010E94DA27CA01B9010E94A8
:101FD0003C260E94DE286093990270939A028093B7
:101FE0009B0290939C02DF91CF91FF90EF90DF9046
:101FF000CF90089564EF71E080E090E00E94E705E3
:102000008AE00E94C40F1092DB011092DC01109252
:10201000DD011092DE011092D7011092D8011092CA
:10202000D9011092DA011092D3011092D4011092CA
:10203000D5011092D601089580E090E0A0E0B0E4D0
:1020400080939D0290939E02A0939F02B093A00262
:102050008AE00C94C40F9B01BA016F5F7F4F80919F
:10206000F8029091F9028617970708F440C0809112
:10207000E7029091E802009731F58091F602909185
:10208000F702840F951F6091EA027091EB020E94A3
:1020900090276091EC027091ED02869FA001879FCE
:1020A000500D969F500D11246091F2027091F30231
:1020B000640F751FC9014091EC025091ED020E941E
:1020C000FB2A81E00895019791F46091EC027091F0
:1020D000ED02469FC001479F900D569F900D112421
:1020E0006091F2027091F302680F791FE3CF80E0F4
:1020F00008958091E90281110BC04091F80250913E
:10210000F9022091EA023091EB0242175307B9F12C
:102110004091EC025091ED022091F4023091F502D1
:10212000429FC001439F900D529F900D112420911A
:10213000F2023091F302820F931F0E94FB2A20913A
:10214000EA023091EB028091F4029091F502A9012C
:10215000415051098417950798F401969093F50220
:102160008093F4028091F8029091F90228173907C0
:1021700061F001969093F9028093F80281E008954E
:102180001092F5021092F402EDCF8091E9028823BB
:10219000A9F32091E7023091E802232B81F72091E7
:1021A000F6023091F7022417350738F42F5F3F4FBE
:1021B0003093F7022093F60208951092F7021092DE
:1021C000F60208958091F8029091F902892BC9F1E5
:1021D0008091E7029091E8020097F9F44091EC02B7
:1021E0005091ED022091F6023091F702429FC0011A
:1021F000439F900D529F900D11242091F202309137
:10220000F302280F391FCB014091EC025091ED02EF
:10221000B9010E94FB2A81E00895019791F4809111
:10222000F4029091F5024091EA025091EB0200977E
:1022300009F0AC01415051092091EC023091ED02BE
:10224000D5CF80E008958F929F92AF92BF920F9367
:102250001F93CF93DF93CDB7DEB7A1970FB6F89456
:10226000DEBF0FBECDBF19A2423008F44AE08E0196
:102270000F5D1F4F842E912CB12CA12CA501940130
:102280000E94B827E62FB901CA01EA3044F5E05DA3
:10229000D801EE938D01232B242B252B79F790E089
:1022A00080E0109769F0FD0101900020E9F7319777
:1022B000AF014A1B5B0BBD0182EC92E00E94DF067E
:1022C000A1960FB6F894DEBF0FBECDBFDF91CF91C0
:1022D0001F910F91BF90AF909F908F900895E95CF0
:1022E000D7CF42E050E06FE371E082EC92E00C94D3
:1022F000DF06CF92DF92EF92FF92CF93DF936C01D4
:10230000990FEE08FF08F7FE1DC06DE282EC92E027
:102310000E94290DEC0166277727CB016C197D09F6
:102320008E099F094AE00E942311C80FD91F0E94FD
:1023300071118C0F9D1FDF91CF91FF90EF90DF9077
:10234000CF9008954AE0C701B6010E942311EC0125
:10235000EECF2F923F924F925F926F927F928F9229
:102360009F92AF92BF92CF92DF92EF92FF920F9324
:102370001F93CF93DF9300D000D000D0CDB7DEB74E
:1023800081E08093E30280914E0290914F02209170
:102390005602309157023093D9022093D80290937D
:1023A000DB028093DA02209086023090870223E0DD
:1023B000220E311CC0906402D0906502E09066024B
:1023C000F0906702409068025090690260906A0243
:1023D00070906B02A7019601C301B2010E941429FB
:1023E00087FD8CC08090640290906502A090660288
:1023F000B0906702A5019401C701B6010E9414299B
:1024000018160CF06CC0A5019401C301B2010E9422
:10241000FF272DEC3CEC4CE45DE30E949B269B01E6
:10242000AC01C301B2010E94FF279B01AC01C701AF
:10243000B6010E94352687FF52C040908C02509012
:102440008D0260908E0270908F0200918002109138
:102450008102C701B6010E94DE2869837A838B83DB
:102460009C8389819A810E9433049E838D83A50178
:102470009401C701B6010E94FF27A30192010E94A7
:102480009B264B015C01B80190E080E00E943A2657
:102490009B01AC01C501B4010E9400284B015C0105
:1024A0008D819E81969587959E838D83BC0190E05A
:1024B00080E00E943A269B01AC01C501B4010E9454
:1024C000FF270E94DE287093CB026093CA023092ED
:1024D000CD022092CC0289819A810E9479112091AB
:1024E0007402309175024091760250917702C701D3
:1024F000B6010E9400286B017C0164CF26960FB6BE
:10250000F894DEBF0FBECDBFDF91CF911F910F9129
:10251000FF90EF90DF90CF90BF90AF909F908F9003
:102520007F906F905F904F903F902F9008954F92C3
:102530005F926F927F928F929F92AF92BF92CF9253
:10254000DF92EF92FF92CF93DF9300D000D0CDB710
:10255000DEB781E08093E30280914E0290914F02BA
:1025600020915602309157023093D9022093D8021D
:102570009093DB028093DA02609180027091810275
:1025800090E080E00E943A262B013C01C0906C0252
:10259000D0906D02E0906E02F0906F02A70196015C
:1025A0006091700270917102809172029091730239
:1025B0000E94142987FD67C0A701960160916C02F3
:1025C00070916D0280916E0290916F020E94FF27C0
:1025D0002091900230919102409192025091930289
:1025E0000E949B264B015C016091860270918702DC
:1025F00090E080E00E943A269B01AC01C501B40145
:102600000E9400284B015C01C701B6010E94DE2830
:1026100069837A838B839C8389819A810E943304A6
:102620000296BC0190E080E00E943A269B01AC013A
:10263000C301B2010E94FF270E94DE287093CB02E3
:102640006093CA0220E030E040E450E4C501B401E8
:102650000E94FF270E94DE287093CD026093CC0277
:1026600089819A810E9479112091780230917902B2
:1026700040917A0250917B02C701B6010E94002866
:102680006B017C018BCF0F900F900F900F90DF911B
:10269000CF91FF90EF90DF90CF90BF90AF909F9041
:1026A0008F907F906F905F904F900895CF93DF93BE
:1026B000FC01448155816081718182EC92E00E942D
:1026C000DF06EC010E9471118C0F9D1FDF91CF91ED
:1026D0000895CF92DF92EF92FF920F931F93CF93C3
:1026E000DF936C01CEE4D2E0E880F9802AAD3BAD07
:1026F0006AA97BA900E110E050E040E082EC92E0A2
:102700000E94F50CE2ECF2E082E081A388819981DD
:102710002E813F81378B268B918F808F8AA99BA931
:102720009187808713861286C601DF91CF911F9112
:102730000F91FF90EF90DF90CF900C945613E2EC46
:10274000F2E021E021A32091500230915102578BF9
:10275000468B318F208F26EE30E0318720877387BC
:1027600062870C9456130F931F93CF93DF93EC0162
:1027700088819981009759F02A813B812617370774
:1027800030F081E0DF91CF911F910F9108958B017F
:102790006F5F7F4F0E943E2A009759F0998388838C
:1027A0001B830A832C813D81232B59F7FC01108266
:1027B000E8CF80E0E7CFCF93DF93EC018881998168
:1027C000009711F00E94B529198218821D821C827F
:1027D0001B821A82DF91CF9108950F931F93CF939D
:1027E000DF93EC010C811D810C5F1F4FB8010E942B
:1027F000B313882391F0288139818C819D8162E413
:1028000071E0820F931F0E94042B1D830C83CE0165
:10281000DF91CF911F910F910895CE010E94DB139C
:10282000F6CFEF92FF920F931F93CF93DF93EC01BC
:10283000FB01E080F180E114F10411F104811581C4
:1028400001151105A9F08C819D81080F191FB80190
:10285000CE010E94B313882399F0288139818C819D
:102860009D81B701820F931F0E94042B1D830C834F
:10287000CE01DF91CF911F910F91FF90EF900895BE
:10288000CE010E94DB13F4CFEF92FF920F931F93C0
:10289000CF93DF93EC017B018A01BA010E94B3134D
:1028A00081110BC0CE010E94DB13CE01DF91CF91CD
:1028B0001F910F91FF90EF9008951D830C83B70136
:1028C000888199810E94042BF0CFEF92FF920F93A1
:1028D0001F93CF93DF93CDB7DEB7A1970FB6F894D0
:1028E000DEBF0FBECDBF7C01CB01BA01F701118263
:1028F000108213821282158214828E010F5F1F4F85
:1029000021E043E00E94E0230097C9F0FC01019020
:102910000020E9F73197AF01481B590BBC01C701F3
:102920000E944414A1960FB6F894DEBF0FBECDBF2F
:10293000DF91CF911F910F91FF90EF900895C70104
:102940000E94DB13EFCFCF93DF93EC01FB018617DF
:10295000970749F0608171816115710541F04481EB
:1029600055810E944414CE01DF91CF9108950E94B9
:10297000DB13F9CFFC0111821082138212821582BF
:102980001482FB0101900020E9F73197AF01461B4B
:10299000570B0C944414FC0180819181009711F035
:1029A0000C94B52908952F923F924F925F926F92A7
:1029B0007F928F929F92AF92BF92CF92DF92EF92CF
:1029C000FF920F931F93CF93DF9300D000D000D0DE
:1029D000CDB7DEB72B013C0149015A018EE4282E08
:1029E00082E0382EF101E080F180E2ECF2E004892F
:1029F00015892289338950E040E070E060E0CF0122
:102A00000E94F50C67E471E0CE0101960E94BA14B1
:102A1000CE0101960E946913CE0101960E94CB144B
:102A2000A3019201C501B4010E94FF276B017C0143
:102A3000F101468E578E60A271A282A293A2A4A237
:102A4000B5A220E030E040E05EE30E949B26F10169
:102A500062A773A784A795A760AD71AD84A995A956
:102A6000681B790B90E080E00E943A26A70196014E
:102A70000E946C286093900270939102809392025E
:102A8000909393020E942D090E9497120E94E709D9
:102A90000E94A9110E94AF0881E026960FB6F89413
:102AA000DEBF0FBECDBFDF91CF911F910F91FF9081
:102AB000EF90DF90CF90BF90AF909F908F907F90DE
:102AC0006F905F904F903F902F9008950C94B52990
:102AD0001F920F920FB60F9211242F933F938F9353
:102AE0009F93AF93BF938091E8019091E901A091EA
:102AF000EA01B091EB013091E70123E0230F2D377C
:102B000058F50196A11DB11D2093E7018093E801BE
:102B10009093E901A093EA01B093EB018091EC015D
:102B20009091ED01A091EE01B091EF010196A11DF0
:102B3000B11D8093EC019093ED01A093EE01B09351
:102B4000EF01BF91AF919F918F913F912F910F9086
:102B50000FBE0F901F90189526E8230F0296A11D17
:102B6000B11DD2CF1F920F920FB60F9211248F93E7
:102B70009F938091E1009091E100937F9093E10019
:102B800083FF0FC01092E90091E09093EB00109248
:102B9000EC0092E39093ED001092FD0198E0909389
:102BA000F00082FF22C093E09093E9009091F20040
:102BB000992319F09AE39093E8009091CF0199231B
:102BC00041F09091CF0191509093CF01911101C0AC
:102BD0005D9A9091FC01992341F09091FC019150F4
:102BE0009093FC01911101C0289A84FF18C0809134
:102BF000E2008E7E81608093E2008091E1008F7E12
:102C00008093E1008091D0018E7E80618093D0011D
:102C10009F918F910F900FBE0F901F90189580FF7E
:102C2000F7CF8091E2008E7E80618093E2008091F8
:102C3000E1008E7E8093E1008091D0018E7E8160E4
:102C4000E5CF1F920F920FB60F921124CF92DF9211
:102C5000EF92FF920F931F932F933F934F935F93A6
:102C60006F937F938F939F93AF93BF93EF93FF9354
:102C7000CF93DF93CDB7DEB76C97DEBFCDBF109299
:102C8000E9008091E80083FF25C068E0CE01459609
:102C90000E94D20682EF8093E8008D8987FF39C0B9
:102CA0009091E80090FFFCCF982F907609F034C106
:102CB0009E894F89588D2F89F88C911131C08038A9
:102CC00061F58091D1018093F1001092F1008EEFB7
:102CD0008093E8006C960FB6F894DEBF0FBECDBFB0
:102CE000DF91CF91FF91EF91BF91AF919F918F9124
:102CF0007F916F915F914F913F912F911F910F9114
:102D0000FF90EF90DF90CF900F900FBE0F901F902D
:102D100018959EEF9093E800C7CF1092F100D5CFA1
:102D2000913059F48111D3CF4130510581F6809112
:102D3000D1018D7F8093D101CACF933049F48111A5
:102D4000C6CF4130510519F68091D1018260F2CF92
:102D5000953041F48091E80080FFFCCF20682093FB
:102D6000E300B5CF963009F0A9C00B8D1C8D22E091
:102D70001092E9001092CD011092CC01F2122EC0F7
:102D80001092CB011092CA010E94A1061F8299E005
:102D90009983FA8291E09E8390EA98879AEF9987C7
:102DA0002091CC013091CD01275F3F4F3C832B8395
:102DB0008D831092E9001092CD011092CC011093F6
:102DC000CB010093CA0149E050E0BE016F5F7F4F25
:102DD00080E00E947B060E94A10679CF1093CB0170
:102DE0000093CA010E94CF04DC0112960D911C9140
:102DF0000115110509F451C1D801ED91FC91048030
:102E0000F581E02DBE016B5E7F4FC80109950097EB
:102E100009F03EC1F80100851185EACFF3E0FF1209
:102E20000EC08F89882309F440C0823061F440E8E5
:102E300060E185E097E00E944806811148CF81E279
:102E40008093EB0047CF813029F440E86BE089EFB5
:102E500096E0F1CF833099F70E94CF04DC011296FF
:102E6000ED90FC908E010F5F1F4F6801E114F1049B
:102E700079F0D701ED91FC910680F781E02DB80142
:102E8000C7010995080F111DF701E084F184EECF09
:102E9000D8011C92F60101900020E9F73197BF019B
:102EA0006C197D0940E0C601C6CF63EE76E0FB01F8
:102EB000449150E080E80E947B0609CF973009F4E6
:102EC000BECF983021F481E08093F10000CF99309B
:102ED00009F0FDCE837009F0B2CFE3E1F1E081E0CB
:102EE00031E096E32191222371F08093E900309341
:102EF000EB00DF0111972C912093EC009093ED00F3
:102F00008F5F873079F78EE78093EA001092EA00AE
:102F10008F898093FD01DBCE8B8D9C8D1092E90013
:102F20001092CD011092CC019093CB018093CA01F5
:102F3000898D811192C08E899D89913A49F481329F
:102F400009F07DCF47E050E064E071E080E0B3CF6E
:102F5000913209F074CF833269F48F89988DB0E093
:102F6000A0E08093000190930101A0930201B0932F
:102F70000301ADCE803269F48091E80082FFFCCF7E
:102F800067E084E091E00E94D2068BEF8093E80036
:102F90009ECE823209F09BCE8F8980930B01EEEF9B
:102FA000FFE7859194918B3F9C4D51F1E0E0F8E073
:102FB0008091040190910501A0910601B091070153
:102FC000803B9440A105B105F1F480910B0180FD97
:102FD0001AC0EE3F8AE0F80789F587E797E7918303
:102FE0008083809160008093CE0188E19BE00FB6E2
:102FF000F894A895809360000FBE9093600067CE10
:10300000EEEFFAE0D5CF808191818737974709F0BD
:103010005ECEA89580916000886180936000809169
:10302000CE0180936000EE3F2AE0F20789F08091A4
:10303000FE0A9091FF0A9183808349CE808191811D
:103040008737980751F29093FF0A8093FE0AC5CF05
:103050001092FF0A1092FE0A3ACE0E94CF04DC01C1
:1030600012960D911C910115110509F4E8CED801B5
:10307000ED91FC910190F081E02DBE016B5E7F4FE0
:10308000C8010995811123CEF80100851185EBCF88
:10309000181619060CF41BCED2CEF1E0FF12BECEEC
:1030A00067EE76E004CFCF93DF9310920102109287
:1030B000000288EE93E0A0E0B0E0809302029093DB
:1030C0000302A0930402B09305028DE191E0909376
:1030D000FF018093FE018FEF9FEF90930B0280938F
:1030E0000A0288E790E09093EB028093EA028CE07A
:1030F00090E09093ED028093EC021092E80210921F
:10310000E7021092E9021092FB021092FA0280EAA2
:1031100095E00E9419299093F3028093F202892B83
:1031200009F0ECC01092EE021092EF021092F00241
:103130001092F1021092C5021092C40287E391E04E
:103140009093C3028093C202599A61E082E00E9488
:103150008605589A61E083E00E94860583E090E04E
:103160009093D5028093D40222E030E03093D702CE
:103170002093D6021092E5021092CB021092CA025E
:103180001092CD021092CC0281E08093E2028093F3
:10319000E302CFEFDFEFD093D902C093D8021092B1
:1031A000DB021092DA021092D3021092D2028093C4
:1031B000E6021092E402D093DF02C093DE02D093C5
:1031C000E102C093E002D093CF02C093CE02D0932D
:1031D000D102C093D0023093DD022093DC02109222
:1031E000A2021092A1021092A4021092A3021092C5
:1031F000A6021092A5021092A8021092A7021092A5
:10320000AA021092A9021092AC021092AB02109284
:10321000AE021092AD0222E330E03093B20220936E
:10322000B10220E931E03093B4022093B30220E2EE
:1032300033E03093B6022093B5021092C002109290
:10324000C1022DE030E03093B0022093AF028093B2
:10325000BF0262E08DE00E9486058FE291E09093CC
:103260009502809394021092990210929A02109201
:103270009B0210929C0280E090E0A0E8BFE3809364
:103280009D0290939E02A0939F02B093A002109281
:103290004F0210924E02109251021092500280E0A2
:1032A00098EF9093530280935202D0935502C093AB
:1032B000540290935702809356022FE130E03093EE
:1032C00059022093580220EE3FEF30935B02209387
:1032D0005A0220EE37E030935D0220935C02909317
:1032E0005F0280935E02D0936102C0936002D0932C
:1032F0006302C0936202DF91CF91089580EA95E066
:10330000A0E0B0E08093EE029093EF02A093F00271
:10331000B093F10285EA9AE59093FB028093FA025A
:103320001092F5021092F4021092F7021092F60237
:103330001092F9021092F802FDCECF93DF93CDB731
:10334000DEB7CD55D1090FB6F894DEBF0FBECDBFA5
:10335000789484B5826084BD84B5816084BD85B570
:10336000826085BD85B5816085BD80916E0081607C
:1033700080936E0010928100809181008260809322
:103380008100809181008160809381008091800024
:103390008160809380008091910082608093910091
:1033A0008091910081608093910080919000816074
:1033B000809390008091C10084608093C1008091CF
:1033C000C10082608093C1008091C10081608093C0
:1033D000C1008091C30081608093C3008091C000D0
:1033E00082608093C0008091C20081608093C2009F
:1033F00080917A00846080937A0080917A00826064
:1034000080937A0080917A00816080937A00809125
:103410007A00806880937A001092FD011092D101A9
:103420001092D0018091D70081608093D70080EA0C
:103430008093D80089B5806189BD89B5826089BDD6
:1034400009B400FEFDCF61E070E080E090E00E94F2
:10345000E7058091D8008F7C80618093D8008091AF
:10346000E000807F8093E0008091E1008E7E809379
:10347000E1008DE08093E200559A209A1092DB01E2
:103480001092DC011092DD011092DE011092D70142
:103490001092D8011092D9011092DA011092D30142
:1034A0001092D4011092D5011092D60182E180933E
:1034B000960283E18093970261E082E10E94860593
:1034C00062E0809197020E94860581E080939802D5
:1034D00084E10E94C40F80E090E0A0EFB1E480930B
:1034E0009D0290939E02A0939F02B093A00262E07F
:1034F0008DE00E9486058AEF9FE09093A202809360
:10350000A1028CE190E19093AA028093A902198212
:103510001A821B821C821D821E821F821886BE0197
:103520006F5F7F4F87EE92E00E9479101FB7F8948B
:103530008091D201811127C0E1ECF7E08491E0EEA7
:10354000F7E09491E82FF0E0EE0FFF1FEA57F84FF5
:10355000A591B491EC91E92321F461E081E10E940D
:10356000580561E081E10E9486058CB580618CBDC3
:103570008CB580648CBD61E08FE00E94860561E0BF
:1035800080E10E9486058091D2018F5F8093D201F5
:103590001FBF8CB58093C9028CB58C7F8CBD8DB557
:1035A00081608DBD8CB58F7D8CBD8CB5837F8CBDCE
:1035B0008CB58093C802E6E1F7E0D49007E117E00C
:1035C000DA942FEFD21689F1F80184910E948B04CE
:1035D0005801F2E0AF0EB11CF8013196C4900C2DE9
:1035E0000F777501102F115040F0F70184910E9460
:1035F0008504FFEFEF1AFF0AF6CF0A0D1B2D111DF0
:10360000C7FEDECF78012FEFE21AF20AF8016491CB
:1036100070E090E080E06F3F21F464EF71E080E0C3
:1036200090E00E94E7058701CBCF83E08093E5021D
:1036300086E30E948B04E091E502E830E0F4F0E0DC
:10364000EC5DF44E0C94F9272C1BF31DFF1D011E9D
:10365000031E051E071E091E88E40E94850480EFD4
:1036600090E09093D5028093D40280E491E090930F
:10367000D7028093D602599858988AE28EBD009658
:103680000096009601D001C00895599A1EBC000012
:103690000096009601D001C008951092E1021092A8
:1036A000E0021EBC0000009601D001C00895809188
:1036B000D4029091D50201979093CF028093CE02CD
:1036C0009EBD00960096009601D001C0089580919D
:1036D000CE028EBD00000096009601D001C0089574
:1036E00059988BE28EBD00960096009601D001C0DD
:1036F0000895599A1EBC00000096009601D001C0A2
:1037000008951092DF021092DE021EBC00000096A7
:1037100001D001C008958091D6029091D7020197FF
:103720009093D1028093D0029EBD009600960096A1
:1037300001D001C008958091D0028EBD0000009696
:10374000009601D001C00895589A8FEF9FEF909393
:10375000DF028093DE029093E1028093E002909377
:10376000CF028093CE029093D1028093D002209119
:10377000D4023091D50230937D0220937C020091D7
:10378000D6021091D70210937F0200937E0289E146
:1037900090E0909381028093800284E190E0909386
:1037A000830280938202C9010597909385028093DA
:1037B0008402C80149979093870280938602C901C9
:1037C0004E979093890280938802C8018D979093B9
:1037D0008B0280938A02109264021092650210920A
:1037E00066021092670210926C0210926D021092A3
:1037F0006E0210926F02812C912C48ECA42E42E4B0
:10380000B42E8092680290926902A0926A02B092ED
:103810006B028092700290927102A0927202B0923A
:10382000730280E090E0A0E2B1E480937402909390
:103830007502A0937602B0937702809378029093FA
:103840007902A0937A02B0937B02F12CE12C50E034
:1038500040E070E060E082EC92E00E94F50C109293
:10386000640210926502109266021092670280E074
:1038700090E0A4E3B2E48093680290936902A0937D
:103880006A02B0936B0280E090E0A0E1B1E4809323
:10389000740290937502A0937602B09377026091C0
:1038A0008402709185028091800290918102681B50
:1038B000790B90E080E00E943A2620E030E044E37B
:1038C00052E40E946C2860938C0270938D02809366
:1038D0008E0290938F0280E090E0A8ECB2EC80938F
:1038E0006C0290936D02A0936E02B0936F0280926F
:1038F000700290927102A0927202B092730280E004
:1039000090E0A8ECB1E48093780290937902A093C0
:103910007A02B0937B026091860270918702809157
:10392000820290918302681B790B90E080E00E94F4
:103930003A2620E030E048E453E40E946C2860938B
:10394000900270939102809392029093930267E4A5
:1039500071E0CE010D960E94BA14CE010D960E9420
:103960006913CE010D960E94CB140E94E7090E94B4
:103970002D090E94A9110E9497120E94AF0860E9C8
:1039800071E080E090E00E94E7052FB7F894609125
:10399000E8017091E9018091EA019091EB012FBF5C
:1039A00028EE33E040E050E00E94B827CA01B90198
:1039B0000E943A266093DF017093E0018093E10159
:1039C0009093E20161E471E0CE01C7960E94BA14BF
:1039D0008091AF029091B00297FD25C00E942F0503
:1039E000AC012091BF0230E08FB7F894C090E8019D
:1039F000D090E901E090EA01F090EB018FBF809157
:103A0000B7029091B802B601681B790B9091C10280
:103A1000923009F45FC108F0FEC0992309F40AC18D
:103A2000913009F419C1809197020E942F05892BCA
:103A300009F0BBC52FB7F8946091E8017091E901D6
:103A40008091EA019091EB012FBF0E943A266B0111
:103A50007C012091DF013091E0014091E101509122
:103A6000E2016091E3017091E4018091E5019091A0
:103A7000E6010E94002820E030E04AE754E40E947A
:103A80009B2620E030E04AE753E40E9400289B0197
:103A9000AC01C701B6010E94142918160CF085C5A7
:103AA0000E94660F6B017C0160E070E0CB010E9418
:103AB000E7058091990290919A02A0919B02B091A2
:103AC0009C02A7019601281B390B4A0B5B0BCA010C
:103AD000B9010E943C2620919D0230919E024091A6
:103AE0009F025091A0020E946C2869A77AA78BA719
:103AF0009CA72FB7F8946091E8017091E90180913B
:103B0000EA019091EB012FBF0E943A2620E030E0BD
:103B10004AE754E40E946C282091DF013091E001D3
:103B20004091E1015091E2010E94FF276DA37EA325
:103B30008FA398A720E030E040E85FE36091DB01CD
:103B40007091DC018091DD019091DE010E940028DE
:103B50004B015C018092DB019092DC01A092DD01BF
:103B6000B092DE01C9A4DAA4EBA4FCA42091D70191
:103B70003091D8014091D9015091DA01C701B601C5
:103B80000E9400286093D7017093D8018093D901D7
:103B90009093DA01A50194010E946C289B01AC016D
:103BA0002093D3013093D4014093D5015093D60193
:103BB000C701B6010E94FF2769A77AA78BA79CA718
:103BC0008091F8029091F902459708F0E1C026969D
:103BD0001FAE2697D12CC12C312C212CF12C00E0CA
:103BE00010E0E12C71C188E20E94850480E491E03C
:103BF0009093D5028093D40280EF90E038CD88E88E
:103C00002CCD88EEF1CF88EC28CD88E6EDCF88E08A
:103C100024CD88EAE9CF933009F49BC0943009F0B1
:103C200002CF4217530709F0A9C0E091AD02F0910D
:103C3000AE024BC04217530709F0F5CEF1E0F09306
:103C4000C102C092B702D092B802E092B902F092DB
:103C5000BA021092C002E7CE42175307E9F420914E
:103C6000B5023091B6022617370708F0DCCE9093E4
:103C7000C002E091A902F091AA02309709F00995DB
:103C800024E02093C102C092BB02D092BC02E09219
:103C9000BD02F092BE02C7CE8091B1029091B202F5
:103CA0006817790718F41092C102BDCE32E0309344
:103CB000C102C092BB02D092BC02E092BD02F0925F
:103CC000BE02E091A702F091A802309709F4ABCEB2
:103CD0000995A9CE8091B3029091B40286179707F7
:103CE000C8F48091C0028F5F8093C002E091A1026E
:103CF000F091A202813051F0E091A302F091A40270
:103D0000823021F0E091A502F091A602309759F29D
:103D10000995C9CF4217530709F085CE8091BB02A0
:103D20009091BC029601281B390B8091B1029091B1
:103D3000B2028217930708F076CE43E04093C102A7
:103D4000C092B702D092B802E092B902F092BA02E1
:103D50006ACE4217530709F466CE8091B102909162
:103D6000B2028617970708F05ECE8091C0028F5F7F
:103D70008093C00252E05093C10285CFE091AB0224
:103D8000F091AC02309709F009951092C1027BCFF7
:103D900050E040E0BE016F5F7F4F87EE92E00E94EF
:103DA0002B10FD800E811F81E884DF2CC02E312E68
:103DB0002E2CAA24A394B12CA501BE016F5F7F4FC6
:103DC00087EE92E00E942B106D807E808F80988419
:103DD0009301A4016F2D702F812F9E2D0E94142915
:103DE000181624F4F62C072D182DE92C2D2D3C2D1A
:103DF000432D522DB301C4010E941429181624F436
:103E0000D62CC72C382C292C8FEFA81AB80A99E782
:103E1000A916B10489F68F2D902FA12FBE2D89836D
:103E20009A83AB83BC838D2D9C2DA32DB22D8D83C6
:103E30009E83AF83B8878CE0FE013196DE015996F0
:103E400001900D928A95E1F789A49AA4ABA4BCA431
:103E500020916C0230916D0240916E0250916F0280
:103E600021962CAF3DAF4EAF5FAF2197C501B40196
:103E70000E94352687FFA5C363E571E0CE010D964C
:103E80000E94BA14409070025090710260907202C9
:103E900070907302C501B4019F772DEC3CEC4CECA3
:103EA0005DE30E949B269B01AC01C501B4010E9409
:103EB000FF27A30192010E94D31426968FAF269765
:103EC000CE010D960E94CB1449A55AA56BA57CA5E1
:103ED000CE010D960E94651461EB71E0CE01C19692
:103EE0000E94BA14BE01635F7F4FCE01C1960E944B
:103EF00011140E94ED13BC01CE01C7960E94A314B9
:103F0000CE01C1960E94CB14CE010D960E94CB1417
:103F10001E861D86188A1F861A8A198ABE01695C48
:103F20007F4FCE010D960E94A31440EE5FEF70E02C
:103F300060E0CE010D960E949F13CE010D960E9467
:103F4000CB144D2D5C2D632D722DCE010D960E944C
:103F5000651467EB71E0CE01C1960E94BA14BE01F0
:103F6000635F7F4FCE01C1960E9411140E94ED1332
:103F7000BC01CE01C7960E94A314CE01C1960E9437
:103F8000CB14CE010D960E94CB141E861D86188A76
:103F90001F861A8A198ABE01695C7F4FCE010D9671
:103FA0000E94A31440E058EF6AE070E0CE010D9645
:103FB0000E949F13CE010D960E94CB144F2D502FBF
:103FC000612F7E2DCE010D960E9465146DEB71E080
:103FD000CE01C1960E94BA14BE01635F7F4FCE012D
:103FE000C1960E9411140E94ED13BC01CE01C79628
:103FF0000E94A314CE01C1960E94CB14CE010D964F
:104000000E94CB141E861D86188A1F861A8A198A5A
:10401000BE01695C7F4FCE010D960E94A31440EE55
:1040200057E064E170E0CE010D960E949F13CE012F
:104030000D960E94CB144091D3015091D401609110
:10404000D5017091D601CE010D960E94651463ECE6
:1040500071E0CE01C1960E94BA14BE01635F7F4F2A
:10406000CE01C1960E9411140E94ED13BC01CE0135
:10407000C7960E94A314CE01C1960E94CB14CE0114
:104080000D960E94CB141E861D86188A1F861A8ADA
:10409000198ABE01695C7F4FCE010D960E94A31460
:1040A00040E052E86EE170E0CE010D960E949F1351
:1040B000CE010D960E94CB140091F8021091F902E6
:1040C0008091EA029091EB020817190709F03EC3AC
:1040D00001151105B1F18091E7029091E802009776
:1040E00009F00EC38091F6029091F7024091EC0224
:1040F0005091ED02849F9001859F300D949F300D6B
:1041000011246091F2027091F302620F731F980103
:10411000215031098217930708F0EDC20196909360
:10412000F7028093F6024091EC025091ED02CE012D
:1041300049960E94FB2A015011091093F90200933D
:10414000F802BE01635F7F4F87EE92E00E94E210AB
:10415000CD84DE84EF84F888298D3A8D4B8D5C8D7B
:10416000C701B6010E94FF2721966CAF7DAF8EAFCD
:104170009FAF2197209168023091690240916A02B5
:1041800050916B020E9400284B015C01C0926402B6
:10419000D0926502E0926602F09267028092680215
:1041A00090926902A0926A02B0926B0280E090E065
:1041B000A0E1B1E48093740290937502A09376021B
:1041C000B0937702609184027091850280918002A1
:1041D00090918102681B790B90E080E00E943A2662
:1041E0002B013C01A7019601C501B4010E94FF27E4
:1041F0009B01AC01C301B2010E946C2860938C0248
:1042000070938D0280938E0290938F0211E0BE0115
:104210006B5D7F4F87EE92E00E9479108DA19EA189
:10422000AFA1B8A58093E3019093E401A093E501C9
:10423000B093E6011123C1F1A988BA88CB88DC8844
:104240002D853E854F85588921966CAD7DAD8EAD0F
:104250009FAD21970E94002825966CAF7DAF8EAF51
:104260009FAF25974D8C5E8C6F8C78A0298D3A8DF1
:104270004B8D5C8D21966CAD7DAD8EAD9FAD219744
:104280000E9400282596ECACFDAC0EAD1FAD259725
:10429000A30192010E94B30B0E94E7090E94A91199
:1042A0000E942D090E94AF0822242394312CA101E1
:1042B00041505109BE01675E7F4F87EE92E00E9438
:1042C0002B10A101BE01635F7F4F87EE92E00E9439
:1042D0002B10A988BA88CB88DC882D853E854F8530
:1042E000588921966CAD7DAD8EAD9FAD21970E9412
:1042F000002825966CAF7DAF8EAF9FAF25974D8C74
:104300005E8C6F8C78A0298D3A8D4B8D5C8D2196BB
:104310006CAD7DAD8EAD9FAD21970E940028259696
:10432000ECACFDAC0EAD1FAD2597A30192010E9430
:10433000B30B29893A894B895C896A962CAF3DAFCA
:104340004EAF5FAF6A978D859E85AF85B8896E96B3
:104350008CAF9DAFAEAFBFAF6E97CD8CDE8CEF8CC8
:10436000F8A020916402309165024091660250915C
:10437000670225962CAF3DAF4EAF5FAF259780917A
:104380008C0290918D02A0918E02B0918F022A969C
:104390008CAF9DAFAEAFBFAF2A9760918002709196
:1043A000810290E080E00E943A262E966CAF7DAFAD
:1043B0008EAF9FAF2E9725962CAD3DAD4EAD5FAD28
:1043C0002597698D7A8D8B8D9C8D0E94FF272A966B
:1043D0002CAD3DAD4EAD5FAD2A970E949B262E962B
:1043E0002CAD3DAD4EAD5FAD2E970E9400284B0128
:1043F0005C0120E030E0A9010E94142920E030E0B7
:1044000040E05FE387FDBAC1C501B4010E94002806
:104410000E94DE2866967FAF6EAF669780906C0232
:1044200090906D02A0906E02B0906F022091900269
:1044300030919102409192025091930262962CAF7A
:104440003DAF4EAF5FAF6297609186027091870279
:1044500090E080E00E943A262B013C01A7019601E2
:10446000C501B4010E94FF2762962CAD3DAD4EAD53
:104470005FAD62970E949B26A30192010E940028D3
:104480006B017C0120E030E0A9010E94142920E0AA
:1044900030E040E05FE387FD76C1C701B6010E94CE
:1044A00000280E94DE2864967FAF6EAF6497259641
:1044B0002CAD3DAD4EAD5FAD25976E966CAD7DAD2F
:1044C0008EAD9FAD6E970E94FF272A962CAD3DAD15
:1044D0004EAD5FAD2A970E949B262E962CAD3DAD2A
:1044E0004EAD5FAD2E970E9400286B017C0120E04D
:1044F00030E0A9010E94142920E030E040E05FE3B1
:1045000087FD46C1C701B6010E9400280E94DE282F
:104510007B016A962CAD3DAD4EAD5FAD6A97C5018E
:10452000B4010E94FF2762962CAD3DAD4EAD5FAD4C
:1045300062970E949B26A30192010E9400284B01D2
:104540005C0120E030E0A9010E94142920E030E065
:1045500040E05FE387FD21C1C501B4010E9400284E
:104560000E94DE2800915A0210915B029B01A70174
:1045700064966EAD7FAD649766968EAD9FAD66977F
:104580000E94790A3FEF231A330A49E724163104BF
:1045900009F08DCE26965FAD2697552331F06CE25B
:1045A00071E080E090E00E94E705CE01C7960E948E
:1045B000CB1480E090E0892B09F404CA0E9400002B
:1045C00001CA409070025090710260907202709027
:1045D0007302A3019201C501B4010E9414291816A7
:1045E000F4F46EE671E0CE010D960E94BA14C50196
:1045F000B4019F772DEC3CEC4CEC5DE30E949B26D4
:10460000A50194010E9400289B01AC0160916C02FD
:1046100070916D0280916E0290916F024CCC2F2DA3
:10462000302F412F5E2D6D2D7C2D832D922D0E94DC
:10463000FF274B015C0121962CAD3DAD4EAD5FAD2A
:104640002197C301B2010E94FF272B013C0120E00A
:1046500030E040EC50E4C501B4010E949B269B0170
:10466000AC01C301B2010E94142918160CF03FC01E
:1046700020E030E040E05FE3C501B4010E949B26EA
:104680002F2D302F412F5E2D0E9400282B013C0141
:1046900020E030E040EA50E4C501B4010E949B26CE
:1046A00020E030E040E05FE30E949B264B015C018C
:1046B00069E871E0CE010D960E94BA14A50194013B
:1046C000C301B2010E94002821966CAF7DAF8EAF6E
:1046D0009FAF2197A5019401C301B2010E94FF275A
:1046E00021962CAD3DAD4EAD5FAD2197E4CB269626
:1046F0001FAE2697E9CB1092F7021092F60213CD67
:10470000019709F01ECD8091F4029091F502009777
:10471000D9F001979093F5028093F4024091EC0256
:104720005091ED022091F4023091F502429FC001B8
:10473000439F900D529F900D11246091F202709151
:10474000F302680F791FEFCCC801E3CFBE01675EAB
:104750007F4F87EE92E00E94E21041E050E0BE0100
:10476000635F7F4F87EE92E00E942B1010E021964E
:104770001CAE1DAE1EAE1FAE219749CDC501B401C2
:104780000E94FF2745CEC701B6010E94FF2789CEB0
:10479000C701B6010E94FF27B9CEC501B4010E942E
:1047A000FF27DECE8091FA029091FB02853A9A456E
:1047B00031F48091F2029091F3020C94B52908959E
:1047C000EF920F931F93CF93DF93E80134E047FDFF
:1047D00034E1042E000C550B57FF03C05195419551
:1047E0005109E32E022F242FAE010E94FE23CE0199
:1047F000DF91CF911F910F91EF900895A9E0B0E064
:10480000E4E0F4E20C945F276A01F22EB02E102F40
:10481000FBE3AF2EA01608F41BE31F5F012F27E078
:10482000AE014F5F5F4F0E945D25BC018981982FCB
:104830009970913009F43FC09BE2E1FC04C09E2DC9
:104840009170E0FC3AC05E2D5071E82FE87083FF54
:1048500046C084E0911101C083E0EF2DE81B8F1565
:1048600008F0E0E0D6018E2F20E2552351F1992384
:1048700029F0D6019C93C60101966C0196012D5F2B
:104880003F4FE2FE24C08EE4D6018C9391E4119652
:104890009C93119712968C93D9018E2F90E28111DF
:1048A0001BC0E20FF32FF11D10828EEF9FEF2996B0
:1048B000ECE00C947B279DE2C6CF90E2C4CF2D9311
:1048C00081508111FCCFCE0ED11CE0E0D0CF8EE61E
:1048D000D6018C9391E6DBCF9D938150E0CF482F9A
:1048E000447082FF3DC084E0911101C083E08F15C8
:1048F00010F4EF2DE81BD6018E2F20E2552309F18D
:10490000992329F0D6019C93C60101966C0196016A
:104910002D5F3F4FE2FE1BC089E4D6018C938EE4ED
:1049200011968C93119786E412968C93D9018E2F51
:1049300090E2882309F4B5CF9D938150FACF2D934F
:1049400081508111FCCFCE0ED11CE0E0D9CF89E699
:10495000D6018C938EE611968C93119786E6E4CF60
:104960009B0177FF02C030E020E0A1E0B0E09111B0
:1049700002C0B0E0A0E0F9013196AE0FBF1F8B2C52
:10498000912CBB2009F461C05401EFEFAE1ABE0AAE
:10499000AA0DBB1DFA161B0619F014F04F2D4A1B69
:1049A000511188C0E3FC59C07601A42FB0E2A111D7
:1049B0004FC0C40ED11C992309F45BC040E0D6015E
:1049C0001196F60190836D01552309F448C0012F1B
:1049D000060F9A81582F507184FF03C0913309F458
:1049E000015010160CF047C0093008F008E0EEE264
:1049F000FE2E5B01A01AB108850191948194910863
:104A00002F3F320729F4D601FC92F60131966F014F
:104A10006217730794F1021713077CF5DB01A21BE1
:104A2000B30BAA24A394B12CAC0EBD1EAA0DBB1DC2
:104A300011968C9121503109D6011196281539050E
:104A4000F4F0F60180836D01DBCFB12CA12CA0CF57
:104A5000F701B1937F01A150AACF9111B0CFD60138
:104A6000942F50E302C05D9391509111FCCFC40E7E
:104A7000D11C40E0ACCF01E0BACF80E3DBCF6217BE
:104A8000730731F4963388F4953311F4552369F0A4
:104A9000F6018083FD01842F90E2811108C0A40FEC
:104AA000B11D1C9290E080E002CF81E3F1CF9193A1
:104AB0008150F3CF911183CF8ACF283008F027E0BF
:104AC0003327DA01990F311D87FD9160009661054A
:104AD000710539F432602E5F3D9330E32A95E1F79A
:104AE00008959F3F30F080387105610509F03C5F03
:104AF0003C5F3D93913008F08068911DDF93CF9328
:104B00001F930F93FF92EF92192F987F9695E92F9D
:104B100096959695E90FFF27EA5FFE4F9927332771
:104B2000EE24FF24A701E70105900894079428F4D8
:104B3000360FE71EF81E491F511D660F771F881F8D
:104B4000991F0694A1F70590079428F4E70EF81E24
:104B5000491F561FC11D770F881F991F661F069496
:104B6000A1F70590079428F4F80E491F561FC71F98
:104B7000D11D880F991F661F771F0694A1F7059016
:104B8000079420F4490F561FC71FD81F990F661F9F
:104B9000771F881F0694A9F784911095177041F02C
:104BA000D695C79557954795F794E7941A95C1F709
:104BB000ECEAF0E068941590159135916591959126
:104BC00005907FE27395E118F10A430B560BC90B70
:104BD000D009C0F7E10CF11E431F561FC91FD01D9D
:104BE0007EF4703311F48A95E6CFE894015030F0EA
:104BF000080F0AF40027021708F4202F2395022F2C
:104C00007A3328F079E37D932A95E9F710C07D93F4
:104C10002A9589F606949795679537951795179471
:104C2000E118F10A430B560BC90BD00998F02395F4
:104C30007E9173957A3308F070E37C932013B8F774
:104C40007E9170617D9330F0839571E37D9370E385
:104C50002A95E1F71124EF90FF900F911F91CF91CA
:104C6000DF91992787FD909508950E94772608F493
:104C700081E00895E89409C097FB3EF490958095F3
:104C8000709561957F4F8F4F9F4F9923A9F0F92F12
:104C900096E9BB279395F695879577956795B79590
:104CA000F111F8CFFAF4BB0F11F460FF1BC06F5F76
:104CB0007F4F8F4F9F4F16C0882311F096E911C088
:104CC000772321F09EE8872F762F05C0662371F0A9
:104CD00096E8862F70E060E02AF09A95660F771FBD
:104CE000881FDAF7880F9695879597F90895990F99
:104CF0000008550FAA0BE0E8FEEF16161706E807A6
:104D0000F907C0F012161306E407F50798F0621BC6
:104D1000730B840B950B39F40A2661F0232B242B9B
:104D2000252B21F408950A2609F4A140A6958FEFBA
:104D3000811D811D08950E94AE260C941F270E949C
:104D4000112738F00E94182720F0952311F00C94B9
:104D500008270C940E2711240C9453270E94302707
:104D600070F3959FC1F3950F50E0551F629FF001BE
:104D7000729FBB27F00DB11D639FAA27F00DB11DD7
:104D8000AA1F649F6627B00DA11D661F829F222760
:104D9000B00DA11D621F739FB00DA11D621F839FE7
:104DA000A00D611D221F749F3327A00D611D231FBD
:104DB000849F600D211D822F762F6A2F11249F570B
:104DC00050409AF0F1F088234AF0EE0FFF1FBB1F0E
:104DD000661F771F881F91505040A9F79E3F5105CD
:104DE00080F00C9408270C9453275F3FE4F3983E1F
:104DF000D4F3869577956795B795F795E7959F5F77
:104E0000C1F7FE2B880F911D9695879597F9089508
:104E100097F99F6780E870E060E008959FEF80EC6D
:104E2000089500240A941616170618060906089510
:104E300000240A9412161306140605060895092E76
:104E40000394000C11F4882352F0BB0F40F4BF2BE5
:104E500011F460FF04C06F5F7F4F8F4F9F4F089525
:104E600057FD9058440F551F59F05F3F71F047951B
:104E7000880F97FB991F61F09F3F79F08795089500
:104E8000121613061406551FF2CF4695F1DF08C01F
:104E9000161617061806991FF1CF8695710561053C
:104EA00008940895E894BB2766277727CB0197F9E4
:104EB00008952F923F924F925F926F927F928F92BE
:104EC0009F92AF92BF92CF92DF92EF92FF920F9399
:104ED0001F93CF93DF93CDB7DEB7CA1BDB0B0FB6A3
:104EE000F894DEBF0FBECDBF09942A883988488860
:104EF0005F846E847D848C849B84AA84B984C884F6
:104F0000DF80EE80FD800C811B81AA81B981CE0FEC
:104F1000D11D0FB6F894DEBF0FBECDBFED010895D1
:104F2000AA1BBB1B51E107C0AA1FBB1FA617B707CF
:104F300010F0A61BB70B881F991F5A95A9F78095EB
:104F40009095BC01CD01089597FB072E16F40094AF
:104F500007D077FD09D00E94902707FC05D03EF4CA
:104F6000909581959F4F0895709561957F4F089515
:104F7000A1E21A2EAA1BBB1BFD010DC0AA1FBB1F5D
:104F8000EE1FFF1FA217B307E407F50720F0A21BCF
:104F9000B30BE40BF50B661F771F881F991F1A943C
:104FA00069F760957095809590959B01AC01BD0166
:104FB000CF010895052E97FB1EF400940E94F1275F
:104FC00057FD07D00E94B82707FC03D04EF40C947D
:104FD000F12750954095309521953F4F4F4F5F4FAA
:104FE000089590958095709561957F4F8F4F9F4F55
:104FF0000895EE0FFF1F0590F491E02D099450588D
:10500000BB27AA270E9417280C941F270E9411274C
:1050100038F00E94182720F039F49F3F19F426F445
:105020000C940E270EF4E095E7FB0C940827E92F6B
:105030000E94302758F3BA17620773078407950751
:1050400020F079F4A6F50C9452270EF4E0950B2E7F
:10505000BA2FA02D0B01B90190010C01CA01A001CA
:105060001124FF27591B99F0593F50F4503E68F125
:105070001A16F040A22F232F342F4427585FF3CF66
:10508000469537952795A795F0405395C9F77EF437
:105090001F16BA0B620B730B840BBAF09150A1F080
:1050A000FF0FBB1F661F771F881FC2F70EC0BA0F06
:1050B000621F731F841F48F4879577956795B7958E
:1050C000F7959E3F08F0B0CF9395880F08F0992789
:1050D000EE0F9795879508950E9480280C941F27BE
:1050E0000E94182758F00E94112740F029F45F3FD2
:1050F00029F00C94082751110C9453270C940E2777
:105100000E94302768F39923B1F3552391F3951B3F
:10511000550BBB27AA2762177307840738F09F5FD8
:105120005F4F220F331F441FAA1FA9F335D00E2E45
:105130003AF0E0E832D091505040E695001CCAF7B2
:105140002BD0FE2F29D0660F771F881FBB1F261775
:1051500037074807AB07B0E809F0BB0B802DBF014C
:10516000FF2793585F4F3AF09E3F510578F00C941B
:1051700008270C9453275F3FE4F3983ED4F38695B9
:1051800077956795B795F7959F5FC9F7880F911D3C
:105190009695879597F90895E1E0660F771F881F28
:1051A000BB1F621773078407BA0720F0621B730BDB
:1051B000840BBA0BEE1F88F7E09508950E94E5284E
:1051C0006894B1110C94532708950E94382788F0F1
:1051D0009F5798F0B92F9927B751B0F0E1F0660FBB
:1051E000771F881F991F1AF0BA95C9F714C0B130FC
:1051F00091F00E945227B1E008950C945227672F36
:10520000782F8827B85F39F0B93FCCF3869577952A
:105210006795B395D9F73EF4909580957095619513
:105220007F4F8F4F9F4F08950E94772608F48FEF8E
:1052300008950F931F93CF93DF938230910510F45D
:1052400082E090E0E091FE02F091FF0230E020E089
:10525000B0E0A0E0309799F42115310509F44AC077
:10526000281B390B24303105D8F58A819B816115C3
:10527000710589F1FB0193838283FE0111C0408196
:1052800051810281138148175907E0F048175907E7
:1052900099F4109761F012960C93129713961C9341
:1052A0003296CF01DF91CF911F910F910895009316
:1052B000FE021093FF02F4CF2115310551F0421781
:1052C000530738F0A901DB019A01BD01DF01F801A4
:1052D000C1CFEF01F9CF9093FF028093FE02CDCFB3
:1052E000FE01E20FF31F819391932250310939831C
:1052F0002883D7CF2091FC023091FD02232B41F46B
:1053000020910E0130910F013093FD022093FC0299
:1053100020910C0130910D012115310541F42DB77B
:105320003EB74091100150911101241B350BE091C3
:10533000FC02F091FD02E217F307A0F42E1B3F0BD5
:105340002817390778F0AC014E5F5F4F24173507F7
:1053500048F04E0F5F1F5093FD024093FC02819373
:1053600091939FCFF0E0E0E09CCFCF93DF93009745
:10537000E9F0FC01329713821282A091FE02B091F3
:10538000FF02ED0130E020E01097A1F4208131818F
:10539000820F931F2091FC023091FD0228173907DC
:1053A00009F061C0F093FD02E093FC02DF91CF9120
:1053B0000895EA01CE17DF07E8F54A815B819E0177
:1053C00041155105B1F7E901FB83EA8349915991F0
:1053D000C40FD51FEC17FD0761F4808191810296FF
:1053E000840F951FE90199838883828193819B8330
:1053F0008A83F0E0E0E012968D919C9113970097DC
:10540000B9F52D913C911197CD010296820F931F12
:105410002091FC023091FD022817390739F63097A8
:1054200051F51092FF021092FE02B093FD02A0937C
:10543000FC02BCCFD383C28340815181840F951F6E
:10544000C817D90761F44E5F5F4F88819981480F73
:10545000591F518340838A819B81938382832115C5
:10546000310509F0B0CFF093FF02E093FE029ECF2A
:10547000FD01DC01C0CF13821282D7CFB0E0A0E0E3
:10548000E4E4FAE20C945B278C01009751F4CB0121
:105490000E9419298C01C801CDB7DEB7E0E10C9458
:1054A0007727FC01E60FF71F9C0122503109E21714
:1054B000F30708F49DC0D901CD91DC911197C6176F
:1054C000D70798F0C530D10530F3CE010497861781
:1054D000970708F3C61BD70B2297C193D1936D93FF
:1054E0007C93CF010E94B529D6CF5B01AC1ABD0ACF
:1054F0004C018C0E9D1EA091FE02B091FF02512C1A
:10550000412CF12CE12C109731F58091FC02909107
:10551000FD028815990509F05CC04616570608F08B
:1055200058C080910C0190910D01009741F48DB706
:105530009EB74091100150911101841B950BE81703
:10554000F90708F055C0F093FD02E093FC02F90161
:1055500071836083A0CF8D919C91119712966C906E
:10556000129713967C901397A815B90559F56C01FD
:1055700042E0C40ED11CCA14DB0420F1AC014A196C
:105580005B09DA011296159780F06282738251836B
:105590004083D9016D937C93E114F10471F0D7013C
:1055A0001396FC93EE93129776CF22968C0F9D1F45
:1055B000F90191838083F301EFCFF093FF02E09331
:1055C000FE0269CF4816590608F42C017D01D3016B
:1055D0009ACFCB010E9419297C01009749F0AE01B6
:1055E000B8010E94FB2AC8010E94B529870153CF48
:1055F00010E000E050CFFB01DC0102C001900D92F1
:1056000041505040D8F70895FB01DC0101900D9204
:105610000020E1F7089514E0C8E0D4E004C0FE01E2
:105620000E94F9272196C930D107C9F7F894FFCF16
:10563000FFFFFFFF00E1000000000000000000038A
:10564000800000C180810000000000000091070C74
:1056500007B207A707F807B607D407000000001233
:1056600008661500000000290DDF063F0F3E0F0DF4
:105670000A0020202020004C6F61642043656C6C80
:105680002041004E657720592076616C7565206C4D
:10569000657373207468616E20794D696E004E6584
:1056A0007720592076616C7565206D6F7265207466
:1056B00068616E20794D61780059206C696D69745C
:1056C0007320746F6F206C617267652072656C6106
:1056D0007469766520746F20592072616E67652E3B
:1056E00000437572723A00204D61783A00204D698E
:0A56F0006E3A004E6F726D3A000032
:00000001FF
